{
  "contractName": "Health",
  "abi": [
    {
      "inputs": [],
      "payable": false,
      "stateMutability": "nonpayable",
      "type": "constructor"
    },
    {
      "anonymous": false,
      "inputs": [
        {
          "indexed": false,
          "internalType": "uint256",
          "name": "_patientId",
          "type": "uint256"
        }
      ],
      "name": "addingPatient",
      "type": "event"
    },
    {
      "constant": true,
      "inputs": [],
      "name": "patientCount",
      "outputs": [
        {
          "internalType": "uint256",
          "name": "",
          "type": "uint256"
        }
      ],
      "payable": false,
      "stateMutability": "view",
      "type": "function"
    },
    {
      "constant": true,
      "inputs": [
        {
          "internalType": "uint256",
          "name": "",
          "type": "uint256"
        }
      ],
      "name": "patients",
      "outputs": [
        {
          "internalType": "uint256",
          "name": "id",
          "type": "uint256"
        },
        {
          "internalType": "string",
          "name": "name",
          "type": "string"
        },
        {
          "internalType": "uint256",
          "name": "age",
          "type": "uint256"
        },
        {
          "internalType": "string",
          "name": "gender",
          "type": "string"
        },
        {
          "internalType": "string",
          "name": "bloodGroup",
          "type": "string"
        },
        {
          "internalType": "string",
          "name": "healthStatus",
          "type": "string"
        },
        {
          "internalType": "string",
          "name": "treatment",
          "type": "string"
        },
        {
          "internalType": "string",
          "name": "date",
          "type": "string"
        }
      ],
      "payable": false,
      "stateMutability": "view",
      "type": "function"
    },
    {
      "constant": false,
      "inputs": [
        {
          "internalType": "string",
          "name": "_name",
          "type": "string"
        },
        {
          "internalType": "uint256",
          "name": "_age",
          "type": "uint256"
        },
        {
          "internalType": "string",
          "name": "_gender",
          "type": "string"
        },
        {
          "internalType": "string",
          "name": "_bloodgrp",
          "type": "string"
        },
        {
          "internalType": "string",
          "name": "_health",
          "type": "string"
        },
        {
          "internalType": "string",
          "name": "_treatment",
          "type": "string"
        },
        {
          "internalType": "string",
          "name": "_date",
          "type": "string"
        }
      ],
      "name": "addPatient",
      "outputs": [],
      "payable": false,
      "stateMutability": "nonpayable",
      "type": "function"
    }
  ],
  "bytecode": "0x60806040523480156200001157600080fd5b50620001686040518060400160405280600981526020017f52616d205661726d61000000000000000000000000000000000000000000000081525060206040518060400160405280600481526020017f4d616c65000000000000000000000000000000000000000000000000000000008152506040518060400160405280600281526020017f412b0000000000000000000000000000000000000000000000000000000000008152506040518060400160405280600381526020017f46697400000000000000000000000000000000000000000000000000000000008152506040518060400160405280600481526020017f4e6f6e65000000000000000000000000000000000000000000000000000000008152506040518060400160405280600981526020017f31322f322f323031390000000000000000000000000000000000000000000000815250620002c460201b60201c565b620002be6040518060400160405280600d81526020017f4d616e697368204d65686572610000000000000000000000000000000000000081525060176040518060400160405280600481526020017f4d616c65000000000000000000000000000000000000000000000000000000008152506040518060400160405280600281526020017f422b0000000000000000000000000000000000000000000000000000000000008152506040518060400160405280600381526020017f46697400000000000000000000000000000000000000000000000000000000008152506040518060400160405280600481526020017f4e6f6e65000000000000000000000000000000000000000000000000000000008152506040518060400160405280600981526020017f32392f352f323032300000000000000000000000000000000000000000000000815250620002c460201b60201c565b620004e8565b60016000815480929190600101919050555060405180610100016040528060015481526020018881526020018781526020018681526020018581526020018481526020018381526020018281525060008060015481526020019081526020016000206000820151816000015560208201518160010190805190602001906200034e92919062000439565b506040820151816002015560608201518160030190805190602001906200037792919062000439565b5060808201518160040190805190602001906200039692919062000439565b5060a0820151816005019080519060200190620003b592919062000439565b5060c0820151816006019080519060200190620003d492919062000439565b5060e0820151816007019080519060200190620003f392919062000439565b509050507fd7896b264b2feea2120ada7b6ebca5a47e0e08ce92bfc1d987ead9cf7fc8e9376001546040518082815260200191505060405180910390a150505050505050565b828054600181600116156101000203166002900490600052602060002090601f016020900481019282601f106200047c57805160ff1916838001178555620004ad565b82800160010185558215620004ad579182015b82811115620004ac5782518255916020019190600101906200048f565b5b509050620004bc9190620004c0565b5090565b620004e591905b80821115620004e1576000816000905550600101620004c7565b5090565b90565b610d0e80620004f86000396000f3fe608060405234801561001057600080fd5b50600436106100415760003560e01c806318a639611461004657806393119a83146103fe578063a0303c41146106cf575b600080fd5b6103fc600480360360e081101561005c57600080fd5b810190808035906020019064010000000081111561007957600080fd5b82018360208201111561008b57600080fd5b803590602001918460018302840111640100000000831117156100ad57600080fd5b91908080601f016020809104026020016040519081016040528093929190818152602001838380828437600081840152601f19601f820116905080830192505050505050509192919290803590602001909291908035906020019064010000000081111561011a57600080fd5b82018360208201111561012c57600080fd5b8035906020019184600183028401116401000000008311171561014e57600080fd5b91908080601f016020809104026020016040519081016040528093929190818152602001838380828437600081840152601f19601f820116905080830192505050505050509192919290803590602001906401000000008111156101b157600080fd5b8201836020820111156101c357600080fd5b803590602001918460018302840111640100000000831117156101e557600080fd5b91908080601f016020809104026020016040519081016040528093929190818152602001838380828437600081840152601f19601f8201169050808301925050505050505091929192908035906020019064010000000081111561024857600080fd5b82018360208201111561025a57600080fd5b8035906020019184600183028401116401000000008311171561027c57600080fd5b91908080601f016020809104026020016040519081016040528093929190818152602001838380828437600081840152601f19601f820116905080830192505050505050509192919290803590602001906401000000008111156102df57600080fd5b8201836020820111156102f157600080fd5b8035906020019184600183028401116401000000008311171561031357600080fd5b91908080601f016020809104026020016040519081016040528093929190818152602001838380828437600081840152601f19601f8201169050808301925050505050505091929192908035906020019064010000000081111561037657600080fd5b82018360208201111561038857600080fd5b803590602001918460018302840111640100000000831117156103aa57600080fd5b91908080601f016020809104026020016040519081016040528093929190818152602001838380828437600081840152601f19601f8201169050808301925050505050505091929192905050506106ed565b005b61042a6004803603602081101561041457600080fd5b8101908080359060200190929190505050610856565b6040518089815260200180602001888152602001806020018060200180602001806020018060200187810387528e818151815260200191508051906020019080838360005b8381101561048a57808201518184015260208101905061046f565b50505050905090810190601f1680156104b75780820380516001836020036101000a031916815260200191505b5087810386528c818151815260200191508051906020019080838360005b838110156104f05780820151818401526020810190506104d5565b50505050905090810190601f16801561051d5780820380516001836020036101000a031916815260200191505b5087810385528b818151815260200191508051906020019080838360005b8381101561055657808201518184015260208101905061053b565b50505050905090810190601f1680156105835780820380516001836020036101000a031916815260200191505b5087810384528a818151815260200191508051906020019080838360005b838110156105bc5780820151818401526020810190506105a1565b50505050905090810190601f1680156105e95780820380516001836020036101000a031916815260200191505b50878103835289818151815260200191508051906020019080838360005b83811015610622578082015181840152602081019050610607565b50505050905090810190601f16801561064f5780820380516001836020036101000a031916815260200191505b50878103825288818151815260200191508051906020019080838360005b8381101561068857808201518184015260208101905061066d565b50505050905090810190601f1680156106b55780820380516001836020036101000a031916815260200191505b509e50505050505050505050505050505060405180910390f35b6106d7610c2e565b6040518082815260200191505060405180910390f35b6001600081548092919060010191905055506040518061010001604052806001548152602001888152602001878152602001868152602001858152602001848152602001838152602001828152506000806001548152602001908152602001600020600082015181600001556020820151816001019080519060200190610775929190610c34565b5060408201518160020155606082015181600301908051906020019061079c929190610c34565b5060808201518160040190805190602001906107b9929190610c34565b5060a08201518160050190805190602001906107d6929190610c34565b5060c08201518160060190805190602001906107f3929190610c34565b5060e0820151816007019080519060200190610810929190610c34565b509050507fd7896b264b2feea2120ada7b6ebca5a47e0e08ce92bfc1d987ead9cf7fc8e9376001546040518082815260200191505060405180910390a150505050505050565b6000602052806000526040600020600091509050806000015490806001018054600181600116156101000203166002900480601f0160208091040260200160405190810160405280929190818152602001828054600181600116156101000203166002900480156109085780601f106108dd57610100808354040283529160200191610908565b820191906000526020600020905b8154815290600101906020018083116108eb57829003601f168201915b505050505090806002015490806003018054600181600116156101000203166002900480601f0160208091040260200160405190810160405280929190818152602001828054600181600116156101000203166002900480156109ac5780601f10610981576101008083540402835291602001916109ac565b820191906000526020600020905b81548152906001019060200180831161098f57829003601f168201915b505050505090806004018054600181600116156101000203166002900480601f016020809104026020016040519081016040528092919081815260200182805460018160011615610100020316600290048015610a4a5780601f10610a1f57610100808354040283529160200191610a4a565b820191906000526020600020905b815481529060010190602001808311610a2d57829003601f168201915b505050505090806005018054600181600116156101000203166002900480601f016020809104026020016040519081016040528092919081815260200182805460018160011615610100020316600290048015610ae85780601f10610abd57610100808354040283529160200191610ae8565b820191906000526020600020905b815481529060010190602001808311610acb57829003601f168201915b505050505090806006018054600181600116156101000203166002900480601f016020809104026020016040519081016040528092919081815260200182805460018160011615610100020316600290048015610b865780601f10610b5b57610100808354040283529160200191610b86565b820191906000526020600020905b815481529060010190602001808311610b6957829003601f168201915b505050505090806007018054600181600116156101000203166002900480601f016020809104026020016040519081016040528092919081815260200182805460018160011615610100020316600290048015610c245780601f10610bf957610100808354040283529160200191610c24565b820191906000526020600020905b815481529060010190602001808311610c0757829003601f168201915b5050505050905088565b60015481565b828054600181600116156101000203166002900490600052602060002090601f016020900481019282601f10610c7557805160ff1916838001178555610ca3565b82800160010185558215610ca3579182015b82811115610ca2578251825591602001919060010190610c87565b5b509050610cb09190610cb4565b5090565b610cd691905b80821115610cd2576000816000905550600101610cba565b5090565b9056fea265627a7a7231582039e05ce56f8302f38445e94dc6bbbb2e97f9a5f3e5c4171c0725d6f8aa1522a264736f6c63430005100032",
  "source": "pragma solidity >=0.4.21 <0.7.0;\n\ncontract Health {\n    struct Patient{\n        uint id;\n        string name;\n        uint age;\n        string gender;\n        string bloodGroup;\n        string healthStatus;\n        string treatment;\n        string date;\n    }\n\n    event addingPatient(uint _patientId);\n\n    mapping (uint=>Patient) public patients;\n\n    uint public patientCount;\n\n    constructor() public{\n        addPatient(\"Ram Varma\", 32,\"Male\", \"A+\", \"Fit\",\"None\",\"12/2/2019\");\n        addPatient(\"Manish Mehera\", 23,\"Male\",\"B+\", \"Fit\",\"None\",\"29/5/2020\");\n    }\n\n    function addPatient(string memory _name,uint _age, string memory _gender, string memory _bloodgrp, string memory _health,string memory _treatment,  string memory _date) public{\n        patientCount++;\n        patients[patientCount] = Patient(patientCount, _name, _age, _gender, _bloodgrp, _health, _treatment, _date);\n        emit addingPatient(patientCount);\n    }\n}",
  "sourcePath": "/home/vivek/Desktop/BlockChain/contracts/Health.sol",
  "compiler": {
    "name": "solc",
    "version": "0.5.16+commit.9c3226ce.Emscripten.clang"
  },
  "schemaVersion": "3.2.0",
  "updatedAt": "2020-06-11T18:21:26.550Z",
  "networkType": "ethereum",
  "devdoc": {
    "methods": {}
  },
  "userdoc": {
    "methods": {}
  }
}