{
  "contractName": "Health",
  "abi": [
    {
      "inputs": [],
      "payable": false,
      "stateMutability": "nonpayable",
      "type": "constructor"
    },
    {
      "constant": true,
      "inputs": [],
      "name": "patientCount",
      "outputs": [
        {
          "internalType": "uint256",
          "name": "",
          "type": "uint256"
        }
      ],
      "payable": false,
      "stateMutability": "view",
      "type": "function"
    },
    {
      "constant": true,
      "inputs": [
        {
          "internalType": "uint256",
          "name": "",
          "type": "uint256"
        }
      ],
      "name": "patients",
      "outputs": [
        {
          "internalType": "uint256",
          "name": "id",
          "type": "uint256"
        },
        {
          "internalType": "string",
          "name": "name",
          "type": "string"
        },
        {
          "internalType": "string",
          "name": "disease",
          "type": "string"
        },
        {
          "internalType": "uint256",
          "name": "treatmentAmount",
          "type": "uint256"
        },
        {
          "internalType": "string",
          "name": "date",
          "type": "string"
        },
        {
          "internalType": "string",
          "name": "time",
          "type": "string"
        }
      ],
      "payable": false,
      "stateMutability": "view",
      "type": "function"
    },
    {
      "constant": false,
      "inputs": [
        {
          "internalType": "string",
          "name": "_name",
          "type": "string"
        },
        {
          "internalType": "string",
          "name": "_disease",
          "type": "string"
        },
        {
          "internalType": "uint256",
          "name": "_amount",
          "type": "uint256"
        },
        {
          "internalType": "string",
          "name": "_date",
          "type": "string"
        },
        {
          "internalType": "string",
          "name": "_time",
          "type": "string"
        }
      ],
      "name": "addPatient",
      "outputs": [],
      "payable": false,
      "stateMutability": "nonpayable",
      "type": "function"
    }
  ],
  "bytecode": "0x608060405234801561001057600080fd5b506100f96040518060400160405280600981526020017f52616d205661726d6100000000000000000000000000000000000000000000008152506040518060400160405280600e81526020017f466576657220616e6420436f6c6400000000000000000000000000000000000081525060646040518060400160405280600981526020017f31322f342f3230323000000000000000000000000000000000000000000000008152506040518060400160405280600781526020017f30323a3030616d000000000000000000000000000000000000000000000000008152506101e660201b60201c565b6101e16040518060400160405280600d81526020017f4d616e697368204d6568657261000000000000000000000000000000000000008152506040518060400160405280600781526020017f547970686f69640000000000000000000000000000000000000000000000000081525060ea6040518060400160405280600981526020017f32392f352f3230323000000000000000000000000000000000000000000000008152506040518060400160405280600781526020017f30353a3334616d000000000000000000000000000000000000000000000000008152506101e660201b60201c565b610372565b6001600081548092919060010191905055506040518060c0016040528060015481526020018681526020018581526020018481526020018381526020018281525060008060015481526020019081526020016000206000820151816000015560208201518160010190805190602001906102619291906102cd565b50604082015181600201908051906020019061027e9291906102cd565b506060820151816003015560808201518160040190805190602001906102a59291906102cd565b5060a08201518160050190805190602001906102c29291906102cd565b509050505050505050565b828054600181600116156101000203166002900490600052602060002090601f016020900481019282601f1061030e57805160ff191683800117855561033c565b8280016001018555821561033c579182015b8281111561033b578251825591602001919060010190610320565b5b509050610349919061034d565b5090565b61036f91905b8082111561036b576000816000905550600101610353565b5090565b90565b61094a806103816000396000f3fe608060405234801561001057600080fd5b50600436106100415760003560e01c80633276a2ac1461004657806393119a83146102d0578063a0303c41146104c9575b600080fd5b6102ce600480360360a081101561005c57600080fd5b810190808035906020019064010000000081111561007957600080fd5b82018360208201111561008b57600080fd5b803590602001918460018302840111640100000000831117156100ad57600080fd5b91908080601f016020809104026020016040519081016040528093929190818152602001838380828437600081840152601f19601f8201169050808301925050505050505091929192908035906020019064010000000081111561011057600080fd5b82018360208201111561012257600080fd5b8035906020019184600183028401116401000000008311171561014457600080fd5b91908080601f016020809104026020016040519081016040528093929190818152602001838380828437600081840152601f19601f82011690508083019250505050505050919291929080359060200190929190803590602001906401000000008111156101b157600080fd5b8201836020820111156101c357600080fd5b803590602001918460018302840111640100000000831117156101e557600080fd5b91908080601f016020809104026020016040519081016040528093929190818152602001838380828437600081840152601f19601f8201169050808301925050505050505091929192908035906020019064010000000081111561024857600080fd5b82018360208201111561025a57600080fd5b8035906020019184600183028401116401000000008311171561027c57600080fd5b91908080601f016020809104026020016040519081016040528093929190818152602001838380828437600081840152601f19601f8201169050808301925050505050505091929192905050506104e7565b005b6102fc600480360360208110156102e657600080fd5b81019080803590602001909291905050506105ce565b604051808781526020018060200180602001868152602001806020018060200185810385528a818151815260200191508051906020019080838360005b83811015610354578082015181840152602081019050610339565b50505050905090810190601f1680156103815780820380516001836020036101000a031916815260200191505b50858103845289818151815260200191508051906020019080838360005b838110156103ba57808201518184015260208101905061039f565b50505050905090810190601f1680156103e75780820380516001836020036101000a031916815260200191505b50858103835287818151815260200191508051906020019080838360005b83811015610420578082015181840152602081019050610405565b50505050905090810190601f16801561044d5780820380516001836020036101000a031916815260200191505b50858103825286818151815260200191508051906020019080838360005b8381101561048657808201518184015260208101905061046b565b50505050905090810190601f1680156104b35780820380516001836020036101000a031916815260200191505b509a505050505050505050505060405180910390f35b6104d161086a565b6040518082815260200191505060405180910390f35b6001600081548092919060010191905055506040518060c001604052806001548152602001868152602001858152602001848152602001838152602001828152506000806001548152602001908152602001600020600082015181600001556020820151816001019080519060200190610562929190610870565b50604082015181600201908051906020019061057f929190610870565b506060820151816003015560808201518160040190805190602001906105a6929190610870565b5060a08201518160050190805190602001906105c3929190610870565b509050505050505050565b6000602052806000526040600020600091509050806000015490806001018054600181600116156101000203166002900480601f0160208091040260200160405190810160405280929190818152602001828054600181600116156101000203166002900480156106805780601f1061065557610100808354040283529160200191610680565b820191906000526020600020905b81548152906001019060200180831161066357829003601f168201915b505050505090806002018054600181600116156101000203166002900480601f01602080910402602001604051908101604052809291908181526020018280546001816001161561010002031660029004801561071e5780601f106106f35761010080835404028352916020019161071e565b820191906000526020600020905b81548152906001019060200180831161070157829003601f168201915b505050505090806003015490806004018054600181600116156101000203166002900480601f0160208091040260200160405190810160405280929190818152602001828054600181600116156101000203166002900480156107c25780601f10610797576101008083540402835291602001916107c2565b820191906000526020600020905b8154815290600101906020018083116107a557829003601f168201915b505050505090806005018054600181600116156101000203166002900480601f0160208091040260200160405190810160405280929190818152602001828054600181600116156101000203166002900480156108605780601f1061083557610100808354040283529160200191610860565b820191906000526020600020905b81548152906001019060200180831161084357829003601f168201915b5050505050905086565b60015481565b828054600181600116156101000203166002900490600052602060002090601f016020900481019282601f106108b157805160ff19168380011785556108df565b828001600101855582156108df579182015b828111156108de5782518255916020019190600101906108c3565b5b5090506108ec91906108f0565b5090565b61091291905b8082111561090e5760008160009055506001016108f6565b5090565b9056fea265627a7a72315820b47a62d38d6b723da0792542b34b06cd523b9f65e952c66a4c11c2710816493a64736f6c63430005100032",
  "source": "pragma solidity >=0.4.21 <0.7.0;\n\ncontract Health {\n    struct Patient{\n        uint id;\n        string name;\n        string disease;\n        uint treatmentAmount;\n        string date;\n        string time;\n    }\n\n    mapping (uint=>Patient) public patients;\n\n    uint public patientCount;\n\n    constructor() public{\n        addPatient(\"Ram Varma\", \"Fever and Cold\", 100, \"12/4/2020\",\"02:00am\");\n        addPatient(\"Manish Mehera\", \"Typhoid\", 234,\"29/5/2020\",\"05:34am\");\n    }\n\n    function addPatient(string memory _name, string memory _disease, uint _amount, string memory _date, string memory _time) public{\n        patientCount++;\n        patients[patientCount] = Patient(patientCount, _name, _disease, _amount, _date, _time);\n    }\n}",
  "sourcePath": "/home/vivek/Desktop/BlockChain/contracts/Health.sol",
  "compiler": {
    "name": "solc",
    "version": "0.5.16+commit.9c3226ce.Emscripten.clang"
  },
  "schemaVersion": "3.2.0",
  "updatedAt": "2020-06-11T06:59:37.034Z",
  "networkType": "ethereum",
  "devdoc": {
    "methods": {}
  },
  "userdoc": {
    "methods": {}
  }
}