{
  "contractName": "Health",
  "abi": [
    {
      "inputs": [],
      "payable": false,
      "stateMutability": "nonpayable",
      "type": "constructor"
    },
    {
      "anonymous": false,
      "inputs": [
        {
          "indexed": false,
          "internalType": "uint256",
          "name": "_patientId",
          "type": "uint256"
        }
      ],
      "name": "addingPatient",
      "type": "event"
    },
    {
      "constant": true,
      "inputs": [],
      "name": "patientCount",
      "outputs": [
        {
          "internalType": "uint256",
          "name": "",
          "type": "uint256"
        }
      ],
      "payable": false,
      "stateMutability": "view",
      "type": "function"
    },
    {
      "constant": true,
      "inputs": [
        {
          "internalType": "uint256",
          "name": "",
          "type": "uint256"
        }
      ],
      "name": "patients",
      "outputs": [
        {
          "internalType": "uint256",
          "name": "id",
          "type": "uint256"
        },
        {
          "internalType": "string",
          "name": "name",
          "type": "string"
        },
        {
          "internalType": "uint256",
          "name": "age",
          "type": "uint256"
        },
        {
          "internalType": "string",
          "name": "bloodGroup",
          "type": "string"
        },
        {
          "internalType": "string",
          "name": "healthStatus",
          "type": "string"
        },
        {
          "internalType": "string",
          "name": "treatment",
          "type": "string"
        },
        {
          "internalType": "string",
          "name": "date",
          "type": "string"
        }
      ],
      "payable": false,
      "stateMutability": "view",
      "type": "function"
    },
    {
      "constant": false,
      "inputs": [
        {
          "internalType": "string",
          "name": "_name",
          "type": "string"
        },
        {
          "internalType": "uint256",
          "name": "_age",
          "type": "uint256"
        },
        {
          "internalType": "string",
          "name": "_bloodgrp",
          "type": "string"
        },
        {
          "internalType": "string",
          "name": "_health",
          "type": "string"
        },
        {
          "internalType": "string",
          "name": "_treatment",
          "type": "string"
        },
        {
          "internalType": "string",
          "name": "_date",
          "type": "string"
        }
      ],
      "name": "addPatient",
      "outputs": [],
      "payable": false,
      "stateMutability": "nonpayable",
      "type": "function"
    }
  ],
  "bytecode": "0x60806040523480156200001157600080fd5b50620001326040518060400160405280600981526020017f52616d205661726d61000000000000000000000000000000000000000000000081525060206040518060400160405280600281526020017f412b0000000000000000000000000000000000000000000000000000000000008152506040518060400160405280600381526020017f46697400000000000000000000000000000000000000000000000000000000008152506040518060400160405280600481526020017f4e6f6e65000000000000000000000000000000000000000000000000000000008152506040518060400160405280600981526020017f31322f322f3230313900000000000000000000000000000000000000000000008152506200025860201b60201c565b620002526040518060400160405280600d81526020017f4d616e697368204d65686572610000000000000000000000000000000000000081525060176040518060400160405280600281526020017f422b0000000000000000000000000000000000000000000000000000000000008152506040518060400160405280600381526020017f46697400000000000000000000000000000000000000000000000000000000008152506040518060400160405280600481526020017f4e6f6e65000000000000000000000000000000000000000000000000000000008152506040518060400160405280600981526020017f32392f352f3230323000000000000000000000000000000000000000000000008152506200025860201b60201c565b62000455565b6001600081548092919060010191905055506040518060e001604052806001548152602001878152602001868152602001858152602001848152602001838152602001828152506000806001548152602001908152602001600020600082015181600001556020820151816001019080519060200190620002db929190620003a6565b5060408201518160020155606082015181600301908051906020019062000304929190620003a6565b50608082015181600401908051906020019062000323929190620003a6565b5060a082015181600501908051906020019062000342929190620003a6565b5060c082015181600601908051906020019062000361929190620003a6565b509050507fd7896b264b2feea2120ada7b6ebca5a47e0e08ce92bfc1d987ead9cf7fc8e9376001546040518082815260200191505060405180910390a1505050505050565b828054600181600116156101000203166002900490600052602060002090601f016020900481019282601f10620003e957805160ff19168380011785556200041a565b828001600101855582156200041a579182015b8281111562000419578251825591602001919060010190620003fc565b5b5090506200042991906200042d565b5090565b6200045291905b808211156200044e57600081600090555060010162000434565b5090565b90565b610b4880620004656000396000f3fe608060405234801561001057600080fd5b50600436106100415760003560e01c806393119a8314610046578063a0303c41146102ab578063d70e5c86146102c9575b600080fd5b6100726004803603602081101561005c57600080fd5b81019080803590602001909291905050506105ea565b60405180888152602001806020018781526020018060200180602001806020018060200186810386528c818151815260200191508051906020019080838360005b838110156100ce5780820151818401526020810190506100b3565b50505050905090810190601f1680156100fb5780820380516001836020036101000a031916815260200191505b5086810385528a818151815260200191508051906020019080838360005b83811015610134578082015181840152602081019050610119565b50505050905090810190601f1680156101615780820380516001836020036101000a031916815260200191505b50868103845289818151815260200191508051906020019080838360005b8381101561019a57808201518184015260208101905061017f565b50505050905090810190601f1680156101c75780820380516001836020036101000a031916815260200191505b50868103835288818151815260200191508051906020019080838360005b838110156102005780820151818401526020810190506101e5565b50505050905090810190601f16801561022d5780820380516001836020036101000a031916815260200191505b50868103825287818151815260200191508051906020019080838360005b8381101561026657808201518184015260208101905061024b565b50505050905090810190601f1680156102935780820380516001836020036101000a031916815260200191505b509c5050505050505050505050505060405180910390f35b6102b3610924565b6040518082815260200191505060405180910390f35b6105e8600480360360c08110156102df57600080fd5b81019080803590602001906401000000008111156102fc57600080fd5b82018360208201111561030e57600080fd5b8035906020019184600183028401116401000000008311171561033057600080fd5b91908080601f016020809104026020016040519081016040528093929190818152602001838380828437600081840152601f19601f820116905080830192505050505050509192919290803590602001909291908035906020019064010000000081111561039d57600080fd5b8201836020820111156103af57600080fd5b803590602001918460018302840111640100000000831117156103d157600080fd5b91908080601f016020809104026020016040519081016040528093929190818152602001838380828437600081840152601f19601f8201169050808301925050505050505091929192908035906020019064010000000081111561043457600080fd5b82018360208201111561044657600080fd5b8035906020019184600183028401116401000000008311171561046857600080fd5b91908080601f016020809104026020016040519081016040528093929190818152602001838380828437600081840152601f19601f820116905080830192505050505050509192919290803590602001906401000000008111156104cb57600080fd5b8201836020820111156104dd57600080fd5b803590602001918460018302840111640100000000831117156104ff57600080fd5b91908080601f016020809104026020016040519081016040528093929190818152602001838380828437600081840152601f19601f8201169050808301925050505050505091929192908035906020019064010000000081111561056257600080fd5b82018360208201111561057457600080fd5b8035906020019184600183028401116401000000008311171561059657600080fd5b91908080601f016020809104026020016040519081016040528093929190818152602001838380828437600081840152601f19601f82011690508083019250505050505050919291929050505061092a565b005b6000602052806000526040600020600091509050806000015490806001018054600181600116156101000203166002900480601f01602080910402602001604051908101604052809291908181526020018280546001816001161561010002031660029004801561069c5780601f106106715761010080835404028352916020019161069c565b820191906000526020600020905b81548152906001019060200180831161067f57829003601f168201915b505050505090806002015490806003018054600181600116156101000203166002900480601f0160208091040260200160405190810160405280929190818152602001828054600181600116156101000203166002900480156107405780601f1061071557610100808354040283529160200191610740565b820191906000526020600020905b81548152906001019060200180831161072357829003601f168201915b505050505090806004018054600181600116156101000203166002900480601f0160208091040260200160405190810160405280929190818152602001828054600181600116156101000203166002900480156107de5780601f106107b3576101008083540402835291602001916107de565b820191906000526020600020905b8154815290600101906020018083116107c157829003601f168201915b505050505090806005018054600181600116156101000203166002900480601f01602080910402602001604051908101604052809291908181526020018280546001816001161561010002031660029004801561087c5780601f106108515761010080835404028352916020019161087c565b820191906000526020600020905b81548152906001019060200180831161085f57829003601f168201915b505050505090806006018054600181600116156101000203166002900480601f01602080910402602001604051908101604052809291908181526020018280546001816001161561010002031660029004801561091a5780601f106108ef5761010080835404028352916020019161091a565b820191906000526020600020905b8154815290600101906020018083116108fd57829003601f168201915b5050505050905087565b60015481565b6001600081548092919060010191905055506040518060e0016040528060015481526020018781526020018681526020018581526020018481526020018381526020018281525060008060015481526020019081526020016000206000820151816000015560208201518160010190805190602001906109ab929190610a6e565b506040820151816002015560608201518160030190805190602001906109d2929190610a6e565b5060808201518160040190805190602001906109ef929190610a6e565b5060a0820151816005019080519060200190610a0c929190610a6e565b5060c0820151816006019080519060200190610a29929190610a6e565b509050507fd7896b264b2feea2120ada7b6ebca5a47e0e08ce92bfc1d987ead9cf7fc8e9376001546040518082815260200191505060405180910390a1505050505050565b828054600181600116156101000203166002900490600052602060002090601f016020900481019282601f10610aaf57805160ff1916838001178555610add565b82800160010185558215610add579182015b82811115610adc578251825591602001919060010190610ac1565b5b509050610aea9190610aee565b5090565b610b1091905b80821115610b0c576000816000905550600101610af4565b5090565b9056fea265627a7a7231582061f39f5a3ecd683687a3dc5a418f3e65ec1c7265817770082886d8a6c9d9e96564736f6c63430005100032",
  "source": "pragma solidity >=0.4.21 <0.7.0;\n\ncontract Health {\n    struct Patient{\n        uint id;\n        string name;\n        uint age;\n        string bloodGroup;\n        string healthStatus;\n        string treatment;\n        string date;\n    }\n\n    event addingPatient(uint _patientId);\n\n    mapping (uint=>Patient) public patients;\n\n    uint public patientCount;\n\n    constructor() public{\n        addPatient(\"Ram Varma\", 32, \"A+\", \"Fit\",\"None\",\"12/2/2019\");\n        addPatient(\"Manish Mehera\", 23,\"B+\", \"Fit\",\"None\",\"29/5/2020\");\n    }\n\n    function addPatient(string memory _name,uint _age, string memory _bloodgrp, string memory _health,string memory _treatment,  string memory _date) public{\n        patientCount++;\n        patients[patientCount] = Patient(patientCount, _name, _age, _bloodgrp, _health, _treatment, _date);\n        emit addingPatient(patientCount);\n    }\n}",
  "sourcePath": "/home/vivek/Desktop/BlockChain/contracts/Health.sol",
  "compiler": {
    "name": "solc",
    "version": "0.5.16+commit.9c3226ce.Emscripten.clang"
  },
  "schemaVersion": "3.2.0",
  "updatedAt": "2020-06-11T18:10:18.971Z",
  "networkType": "ethereum",
  "devdoc": {
    "methods": {}
  },
  "userdoc": {
    "methods": {}
  }
}